{
  "contractName": "LandRecord",
  "abi": [
    {
      "inputs": [],
      "stateMutability": "nonpayable",
      "type": "constructor"
    },
    {
      "anonymous": false,
      "inputs": [
        {
          "indexed": false,
          "internalType": "uint256",
          "name": "id",
          "type": "uint256"
        }
      ],
      "name": "DisputeResolved",
      "type": "event"
    },
    {
      "anonymous": false,
      "inputs": [
        {
          "indexed": false,
          "internalType": "uint256",
          "name": "id",
          "type": "uint256"
        },
        {
          "indexed": false,
          "internalType": "string",
          "name": "ownerName",
          "type": "string"
        },
        {
          "indexed": false,
          "internalType": "string",
          "name": "location",
          "type": "string"
        },
        {
          "indexed": false,
          "internalType": "uint256",
          "name": "area",
          "type": "uint256"
        }
      ],
      "name": "LandAdded",
      "type": "event"
    },
    {
      "anonymous": false,
      "inputs": [
        {
          "indexed": false,
          "internalType": "uint256",
          "name": "id",
          "type": "uint256"
        }
      ],
      "name": "LandApproved",
      "type": "event"
    },
    {
      "anonymous": false,
      "inputs": [
        {
          "indexed": false,
          "internalType": "uint256",
          "name": "id",
          "type": "uint256"
        },
        {
          "indexed": false,
          "internalType": "string",
          "name": "newOwner",
          "type": "string"
        }
      ],
      "name": "LandTransferred",
      "type": "event"
    },
    {
      "anonymous": false,
      "inputs": [
        {
          "indexed": false,
          "internalType": "uint256",
          "name": "id",
          "type": "uint256"
        }
      ],
      "name": "TransferApproved",
      "type": "event"
    },
    {
      "inputs": [],
      "name": "addLandFee",
      "outputs": [
        {
          "internalType": "uint256",
          "name": "",
          "type": "uint256"
        }
      ],
      "stateMutability": "view",
      "type": "function"
    },
    {
      "inputs": [],
      "name": "admin",
      "outputs": [
        {
          "internalType": "address",
          "name": "",
          "type": "address"
        }
      ],
      "stateMutability": "view",
      "type": "function"
    },
    {
      "inputs": [
        {
          "internalType": "uint256",
          "name": "",
          "type": "uint256"
        }
      ],
      "name": "disputes",
      "outputs": [
        {
          "internalType": "uint256",
          "name": "landId",
          "type": "uint256"
        },
        {
          "internalType": "string",
          "name": "reason",
          "type": "string"
        },
        {
          "internalType": "bool",
          "name": "isResolved",
          "type": "bool"
        }
      ],
      "stateMutability": "view",
      "type": "function"
    },
    {
      "inputs": [
        {
          "internalType": "address",
          "name": "",
          "type": "address"
        }
      ],
      "name": "isAdmin",
      "outputs": [
        {
          "internalType": "bool",
          "name": "",
          "type": "bool"
        }
      ],
      "stateMutability": "view",
      "type": "function"
    },
    {
      "inputs": [],
      "name": "landCount",
      "outputs": [
        {
          "internalType": "uint256",
          "name": "",
          "type": "uint256"
        }
      ],
      "stateMutability": "view",
      "type": "function"
    },
    {
      "inputs": [
        {
          "internalType": "uint256",
          "name": "",
          "type": "uint256"
        }
      ],
      "name": "lands",
      "outputs": [
        {
          "internalType": "uint256",
          "name": "id",
          "type": "uint256"
        },
        {
          "internalType": "string",
          "name": "ownerName",
          "type": "string"
        },
        {
          "internalType": "string",
          "name": "location",
          "type": "string"
        },
        {
          "internalType": "uint256",
          "name": "area",
          "type": "uint256"
        },
        {
          "internalType": "bool",
          "name": "isSold",
          "type": "bool"
        },
        {
          "internalType": "bool",
          "name": "isApproved",
          "type": "bool"
        }
      ],
      "stateMutability": "view",
      "type": "function"
    },
    {
      "inputs": [
        {
          "internalType": "uint256",
          "name": "",
          "type": "uint256"
        }
      ],
      "name": "pendingTransfers",
      "outputs": [
        {
          "internalType": "uint256",
          "name": "landId",
          "type": "uint256"
        },
        {
          "internalType": "string",
          "name": "newOwner",
          "type": "string"
        },
        {
          "internalType": "bool",
          "name": "isApproved",
          "type": "bool"
        }
      ],
      "stateMutability": "view",
      "type": "function"
    },
    {
      "inputs": [],
      "name": "transferFee",
      "outputs": [
        {
          "internalType": "uint256",
          "name": "",
          "type": "uint256"
        }
      ],
      "stateMutability": "view",
      "type": "function"
    },
    {
      "inputs": [
        {
          "internalType": "address",
          "name": "",
          "type": "address"
        }
      ],
      "name": "userDetails",
      "outputs": [
        {
          "internalType": "string",
          "name": "",
          "type": "string"
        }
      ],
      "stateMutability": "view",
      "type": "function"
    },
    {
      "inputs": [
        {
          "internalType": "address",
          "name": "_newAdmin",
          "type": "address"
        }
      ],
      "name": "addAdmin",
      "outputs": [],
      "stateMutability": "nonpayable",
      "type": "function"
    },
    {
      "inputs": [
        {
          "internalType": "string",
          "name": "_name",
          "type": "string"
        }
      ],
      "name": "registerUser",
      "outputs": [],
      "stateMutability": "nonpayable",
      "type": "function"
    },
    {
      "inputs": [
        {
          "internalType": "string",
          "name": "_ownerName",
          "type": "string"
        },
        {
          "internalType": "string",
          "name": "_location",
          "type": "string"
        },
        {
          "internalType": "uint256",
          "name": "_area",
          "type": "uint256"
        }
      ],
      "name": "addLand",
      "outputs": [],
      "stateMutability": "payable",
      "type": "function"
    },
    {
      "inputs": [
        {
          "internalType": "uint256",
          "name": "_id",
          "type": "uint256"
        }
      ],
      "name": "approveLand",
      "outputs": [],
      "stateMutability": "nonpayable",
      "type": "function"
    },
    {
      "inputs": [
        {
          "internalType": "uint256",
          "name": "_id",
          "type": "uint256"
        },
        {
          "internalType": "string",
          "name": "_newOwner",
          "type": "string"
        }
      ],
      "name": "transferLand",
      "outputs": [],
      "stateMutability": "payable",
      "type": "function"
    },
    {
      "inputs": [
        {
          "internalType": "uint256",
          "name": "_id",
          "type": "uint256"
        }
      ],
      "name": "approveTransfer",
      "outputs": [],
      "stateMutability": "nonpayable",
      "type": "function"
    },
    {
      "inputs": [
        {
          "internalType": "uint256",
          "name": "_id",
          "type": "uint256"
        },
        {
          "internalType": "string",
          "name": "_reason",
          "type": "string"
        }
      ],
      "name": "raiseDispute",
      "outputs": [],
      "stateMutability": "nonpayable",
      "type": "function"
    },
    {
      "inputs": [
        {
          "internalType": "uint256",
          "name": "_id",
          "type": "uint256"
        }
      ],
      "name": "resolveDispute",
      "outputs": [],
      "stateMutability": "nonpayable",
      "type": "function"
    }
  ],
  "bytecode": "0x6080604052662386f26fc1000060045566470de4df82000060055534801561002657600080fd5b5033600660006101000a81548173ffffffffffffffffffffffffffffffffffffffff021916908373ffffffffffffffffffffffffffffffffffffffff1602179055506001600760003373ffffffffffffffffffffffffffffffffffffffff1673ffffffffffffffffffffffffffffffffffffffff16815260200190815260200160002060006101000a81548160ff021916908315150217905550611c6a806100cf6000396000f3fe6080604052600436106100fe5760003560e01c80637048027511610095578063c99176f411610064578063c99176f41461032b578063cacca4a014610356578063d7bce6581461037f578063e261f1e5146103aa578063f851a440146103ec576100fe565b80637048027514610285578063704f1b94146102ae578063acb2ad6f146102d7578063c2b7b86814610302576100fe565b80634ae42cdc116100d15780634ae42cdc146101c2578063564a565d146101de5780635aef573c1461021d5780636577b86a14610246576100fe565b80630c73f23d1461010357806324d7806c1461011f57806338c887b21461015c57806348dec2a714610185575b600080fd5b61011d600480360381019061011891906113eb565b610417565b005b34801561012b57600080fd5b5061014660048036038101906101419190611381565b610594565b604051610153919061178e565b60405180910390f35b34801561016857600080fd5b50610183600480360381019061017e919061146a565b6105b4565b005b34801561019157600080fd5b506101ac60048036038101906101a79190611381565b61070b565b6040516101b991906117a9565b60405180910390f35b6101dc60048036038101906101d79190611493565b6107ab565b005b3480156101ea57600080fd5b506102056004803603810190610200919061146a565b610936565b604051610214939291906118e6565b60405180910390f35b34801561022957600080fd5b50610244600480360381019061023f9190611493565b6109f5565b005b34801561025257600080fd5b5061026d6004803603810190610268919061146a565b610a74565b60405161027c939291906118e6565b60405180910390f35b34801561029157600080fd5b506102ac60048036038101906102a79190611381565b610b33565b005b3480156102ba57600080fd5b506102d560048036038101906102d091906113aa565b610c1a565b005b3480156102e357600080fd5b506102ec610cff565b6040516102f991906118cb565b60405180910390f35b34801561030e57600080fd5b506103296004803603810190610324919061146a565b610d05565b005b34801561033757600080fd5b50610340610e5e565b60405161034d91906118cb565b60405180910390f35b34801561036257600080fd5b5061037d6004803603810190610378919061146a565b610e64565b005b34801561038b57600080fd5b5061039461102d565b6040516103a191906118cb565b60405180910390f35b3480156103b657600080fd5b506103d160048036038101906103cc919061146a565b611033565b6040516103e396959493929190611977565b60405180910390f35b3480156103f857600080fd5b50610401611199565b60405161040e9190611773565b60405180910390f35b6005548034101561045d576040517f08c379a00000000000000000000000000000000000000000000000000000000081526004016104549061184b565b60405180910390fd5b6003600081548092919061047090611b1f565b91905055506040518060c0016040528060035481526020018581526020018481526020018381526020016000151581526020016000151581525060008060035481526020019081526020016000206000820151816000015560208201518160010190805190602001906104e49291906111bf565b5060408201518160020190805190602001906105019291906111bf565b506060820151816003015560808201518160040160006101000a81548160ff02191690831515021790555060a08201518160040160016101000a81548160ff0219169083151502179055509050507f71ca1a840df66bfaebbdcad4728786df38964c5473129fa2e5ab65e985afc1f66003548585856040516105869493929190611924565b60405180910390a150505050565b60076020528060005260406000206000915054906101000a900460ff1681565b600760003373ffffffffffffffffffffffffffffffffffffffff1673ffffffffffffffffffffffffffffffffffffffff16815260200190815260200160002060009054906101000a900460ff16610640576040517f08c379a0000000000000000000000000000000000000000000000000000000008152600401610637906118ab565b60405180910390fd5b60008082815260200190815260200160002060040160019054906101000a900460ff16156106a3576040517f08c379a000000000000000000000000000000000000000000000000000000000815260040161069a9061182b565b60405180910390fd5b600160008083815260200190815260200160002060040160016101000a81548160ff0219169083151502179055507f91ec7a228989c78928a20eb7fb3443491bc7f1432d0d343373e7175fdc99d7e78160405161070091906118cb565b60405180910390a150565b6008602052806000526040600020600091509050805461072a90611aed565b80601f016020809104026020016040519081016040528092919081815260200182805461075690611aed565b80156107a35780601f10610778576101008083540402835291602001916107a3565b820191906000526020600020905b81548152906001019060200180831161078657829003601f168201915b505050505081565b600454803410156107f1576040517f08c379a00000000000000000000000000000000000000000000000000000000081526004016107e89061184b565b60405180910390fd5b60008084815260200190815260200160002060040160019054906101000a900460ff16610853576040517f08c379a000000000000000000000000000000000000000000000000000000000815260040161084a9061186b565b60405180910390fd5b60008084815260200190815260200160002060040160009054906101000a900460ff16156108b6576040517f08c379a00000000000000000000000000000000000000000000000000000000081526004016108ad906117eb565b60405180910390fd5b6040518060600160405280848152602001838152602001600015158152506001600085815260200190815260200160002060008201518160000155602082015181600101908051906020019061090d9291906111bf565b5060408201518160020160006101000a81548160ff021916908315150217905550905050505050565b600260205280600052604060002060009150905080600001549080600101805461095f90611aed565b80601f016020809104026020016040519081016040528092919081815260200182805461098b90611aed565b80156109d85780601f106109ad576101008083540402835291602001916109d8565b820191906000526020600020905b8154815290600101906020018083116109bb57829003601f168201915b5050505050908060020160009054906101000a900460ff16905083565b60405180606001604052808381526020018281526020016000151581525060026000848152602001908152602001600020600082015181600001556020820151816001019080519060200190610a4c9291906111bf565b5060408201518160020160006101000a81548160ff0219169083151502179055509050505050565b6001602052806000526040600020600091509050806000015490806001018054610a9d90611aed565b80601f0160208091040260200160405190810160405280929190818152602001828054610ac990611aed565b8015610b165780601f10610aeb57610100808354040283529160200191610b16565b820191906000526020600020905b815481529060010190602001808311610af957829003601f168201915b5050505050908060020160009054906101000a900460ff16905083565b600760003373ffffffffffffffffffffffffffffffffffffffff1673ffffffffffffffffffffffffffffffffffffffff16815260200190815260200160002060009054906101000a900460ff16610bbf576040517f08c379a0000000000000000000000000000000000000000000000000000000008152600401610bb6906118ab565b60405180910390fd5b6001600760008373ffffffffffffffffffffffffffffffffffffffff1673ffffffffffffffffffffffffffffffffffffffff16815260200190815260200160002060006101000a81548160ff02191690831515021790555050565b6000600860003373ffffffffffffffffffffffffffffffffffffffff1673ffffffffffffffffffffffffffffffffffffffff1681526020019081526020016000208054610c6690611aed565b905014610ca8576040517f08c379a0000000000000000000000000000000000000000000000000000000008152600401610c9f9061188b565b60405180910390fd5b80600860003373ffffffffffffffffffffffffffffffffffffffff1673ffffffffffffffffffffffffffffffffffffffff1681526020019081526020016000209080519060200190610cfb9291906111bf565b5050565b60045481565b600760003373ffffffffffffffffffffffffffffffffffffffff1673ffffffffffffffffffffffffffffffffffffffff16815260200190815260200160002060009054906101000a900460ff16610d91576040517f08c379a0000000000000000000000000000000000000000000000000000000008152600401610d88906118ab565b60405180910390fd5b6002600082815260200190815260200160002060020160009054906101000a900460ff1615610df5576040517f08c379a0000000000000000000000000000000000000000000000000000000008152600401610dec9061180b565b60405180910390fd5b60016002600083815260200190815260200160002060020160006101000a81548160ff0219169083151502179055507f57cce005d496355471bb5269f1dea3d6c81b6ac14c1d74ba28aefb022357013b81604051610e5391906118cb565b60405180910390a150565b60055481565b600760003373ffffffffffffffffffffffffffffffffffffffff1673ffffffffffffffffffffffffffffffffffffffff16815260200190815260200160002060009054906101000a900460ff16610ef0576040517f08c379a0000000000000000000000000000000000000000000000000000000008152600401610ee7906118ab565b60405180910390fd5b6001600082815260200190815260200160002060020160009054906101000a900460ff1615610f54576040517f08c379a0000000000000000000000000000000000000000000000000000000008152600401610f4b906117cb565b60405180910390fd5b60016000828152602001908152602001600020600101600080838152602001908152602001600020600101908054610f8b90611aed565b610f96929190611245565b50600160008083815260200190815260200160002060040160006101000a81548160ff021916908315150217905550600180600083815260200190815260200160002060020160006101000a81548160ff0219169083151502179055507fd9bbf1d8bef570b7e92ef1ba025425fc15915ae01f3d3be144cdc8be05442eb58160405161102291906118cb565b60405180910390a150565b60035481565b600060205280600052604060002060009150905080600001549080600101805461105c90611aed565b80601f016020809104026020016040519081016040528092919081815260200182805461108890611aed565b80156110d55780601f106110aa576101008083540402835291602001916110d5565b820191906000526020600020905b8154815290600101906020018083116110b857829003601f168201915b5050505050908060020180546110ea90611aed565b80601f016020809104026020016040519081016040528092919081815260200182805461111690611aed565b80156111635780601f1061113857610100808354040283529160200191611163565b820191906000526020600020905b81548152906001019060200180831161114657829003601f168201915b5050505050908060030154908060040160009054906101000a900460ff16908060040160019054906101000a900460ff16905086565b600660009054906101000a900473ffffffffffffffffffffffffffffffffffffffff1681565b8280546111cb90611aed565b90600052602060002090601f0160209004810192826111ed5760008555611234565b82601f1061120657805160ff1916838001178555611234565b82800160010185558215611234579182015b82811115611233578251825591602001919060010190611218565b5b50905061124191906112d2565b5090565b82805461125190611aed565b90600052602060002090601f01602090048101928261127357600085556112c1565b82601f1061128457805485556112c1565b828001600101855582156112c157600052602060002091601f016020900482015b828111156112c05782548255916001019190600101906112a5565b5b5090506112ce91906112d2565b5090565b5b808211156112eb5760008160009055506001016112d3565b5090565b60006113026112fd84611a17565b6119e6565b90508281526020810184848401111561131a57600080fd5b611325848285611aab565b509392505050565b60008135905061133c81611c06565b92915050565b600082601f83011261135357600080fd5b81356113638482602086016112ef565b91505092915050565b60008135905061137b81611c1d565b92915050565b60006020828403121561139357600080fd5b60006113a18482850161132d565b91505092915050565b6000602082840312156113bc57600080fd5b600082013567ffffffffffffffff8111156113d657600080fd5b6113e284828501611342565b91505092915050565b60008060006060848603121561140057600080fd5b600084013567ffffffffffffffff81111561141a57600080fd5b61142686828701611342565b935050602084013567ffffffffffffffff81111561144357600080fd5b61144f86828701611342565b92505060406114608682870161136c565b9150509250925092565b60006020828403121561147c57600080fd5b600061148a8482850161136c565b91505092915050565b600080604083850312156114a657600080fd5b60006114b48582860161136c565b925050602083013567ffffffffffffffff8111156114d157600080fd5b6114dd85828601611342565b9150509250929050565b6114f081611a63565b82525050565b6114ff81611a75565b82525050565b600061151082611a47565b61151a8185611a52565b935061152a818560208601611aba565b61153381611bf5565b840191505092915050565b600061154b601983611a52565b91507f5472616e7366657220616c726561647920617070726f766564000000000000006000830152602082019050919050565b600061158b601183611a52565b91507f4c616e6420616c726561647920736f6c640000000000000000000000000000006000830152602082019050919050565b60006115cb601883611a52565b91507f4469737075746520616c7265616479207265736f6c76656400000000000000006000830152602082019050919050565b600061160b601583611a52565b91507f4c616e6420616c726561647920617070726f76656400000000000000000000006000830152602082019050919050565b600061164b601083611a52565b91507f496e73756666696369656e7420666565000000000000000000000000000000006000830152602082019050919050565b600061168b601483611a52565b91507f4c616e64206973206e6f7420617070726f7665640000000000000000000000006000830152602082019050919050565b60006116cb601783611a52565b91507f5573657220616c726561647920726567697374657265640000000000000000006000830152602082019050919050565b600061170b602283611a52565b91507f4f6e6c792061646d696e2063616e20706572666f726d2074686973206163746960008301527f6f6e0000000000000000000000000000000000000000000000000000000000006020830152604082019050919050565b61176d81611aa1565b82525050565b600060208201905061178860008301846114e7565b92915050565b60006020820190506117a360008301846114f6565b92915050565b600060208201905081810360008301526117c38184611505565b905092915050565b600060208201905081810360008301526117e48161153e565b9050919050565b600060208201905081810360008301526118048161157e565b9050919050565b60006020820190508181036000830152611824816115be565b9050919050565b60006020820190508181036000830152611844816115fe565b9050919050565b600060208201905081810360008301526118648161163e565b9050919050565b600060208201905081810360008301526118848161167e565b9050919050565b600060208201905081810360008301526118a4816116be565b9050919050565b600060208201905081810360008301526118c4816116fe565b9050919050565b60006020820190506118e06000830184611764565b92915050565b60006060820190506118fb6000830186611764565b818103602083015261190d8185611505565b905061191c60408301846114f6565b949350505050565b60006080820190506119396000830187611764565b818103602083015261194b8186611505565b9050818103604083015261195f8185611505565b905061196e6060830184611764565b95945050505050565b600060c08201905061198c6000830189611764565b818103602083015261199e8188611505565b905081810360408301526119b28187611505565b90506119c16060830186611764565b6119ce60808301856114f6565b6119db60a08301846114f6565b979650505050505050565b6000604051905081810181811067ffffffffffffffff82111715611a0d57611a0c611bc6565b5b8060405250919050565b600067ffffffffffffffff821115611a3257611a31611bc6565b5b601f19601f8301169050602081019050919050565b600081519050919050565b600082825260208201905092915050565b6000611a6e82611a81565b9050919050565b60008115159050919050565b600073ffffffffffffffffffffffffffffffffffffffff82169050919050565b6000819050919050565b82818337600083830152505050565b60005b83811015611ad8578082015181840152602081019050611abd565b83811115611ae7576000848401525b50505050565b60006002820490506001821680611b0557607f821691505b60208210811415611b1957611b18611b97565b5b50919050565b6000611b2a82611aa1565b91507fffffffffffffffffffffffffffffffffffffffffffffffffffffffffffffffff821415611b5d57611b5c611b68565b5b600182019050919050565b7f4e487b7100000000000000000000000000000000000000000000000000000000600052601160045260246000fd5b7f4e487b7100000000000000000000000000000000000000000000000000000000600052602260045260246000fd5b7f4e487b7100000000000000000000000000000000000000000000000000000000600052604160045260246000fd5b6000601f19601f8301169050919050565b611c0f81611a63565b8114611c1a57600080fd5b50565b611c2681611aa1565b8114611c3157600080fd5b5056fea2646970667358221220ee90b5cd05111119b5a7624a286ff922b005408ce2551e057d642e15a8b918de64736f6c63430008000033",
  "immutableReferences": {},
  "source": "// SPDX-License-Identifier: MIT\r\npragma solidity ^0.8.0;\r\n\r\ncontract LandRecord {\r\n    struct Land {\r\n        uint256 id;\r\n        string ownerName;\r\n        string location;\r\n        uint256 area;\r\n        bool isSold;\r\n        bool isApproved;\r\n    }\r\n\r\n    struct TransferRequest {\r\n        uint256 landId;\r\n        string newOwner;\r\n        bool isApproved;\r\n    }\r\n\r\n    struct Dispute {\r\n        uint256 landId;\r\n        string reason;\r\n        bool isResolved;\r\n    }\r\n\r\n    mapping(uint256 => Land) public lands;\r\n    mapping(uint256 => TransferRequest) public pendingTransfers;\r\n    mapping(uint256 => Dispute) public disputes;\r\n    \r\n    uint256 public landCount;\r\n    uint256 public transferFee = 0.01 ether; // Fee for transferring land\r\n    uint256 public addLandFee = 0.02 ether; // Fee for adding land\r\n\r\n    address public admin;\r\n    mapping(address => bool) public isAdmin;\r\n    mapping(address => string) public userDetails;\r\n\r\n    event LandAdded(uint256 id, string ownerName, string location, uint256 area);\r\n    event LandApproved(uint256 id);\r\n    event LandTransferred(uint256 id, string newOwner);\r\n    event TransferApproved(uint256 id);\r\n    event DisputeResolved(uint256 id);\r\n\r\n    modifier onlyAdmin() {\r\n        require(isAdmin[msg.sender], \"Only admin can perform this action\");\r\n        _;\r\n    }\r\n\r\n    modifier paidFee(uint256 _fee) {\r\n        require(msg.value >= _fee, \"Insufficient fee\");\r\n        _;\r\n    }\r\n\r\n    constructor() {\r\n        admin = msg.sender;\r\n        isAdmin[msg.sender] = true;\r\n    }\r\n\r\n    function addAdmin(address _newAdmin) public onlyAdmin {\r\n        isAdmin[_newAdmin] = true;\r\n    }\r\n\r\n    function registerUser(string memory _name) public {\r\n        require(bytes(userDetails[msg.sender]).length == 0, \"User already registered\");\r\n        userDetails[msg.sender] = _name;\r\n    }\r\n\r\n    function addLand(string memory _ownerName, string memory _location, uint256 _area) \r\n        public payable paidFee(addLandFee) \r\n    {\r\n        landCount++;\r\n        lands[landCount] = Land(landCount, _ownerName, _location, _area, false, false);\r\n        emit LandAdded(landCount, _ownerName, _location, _area);\r\n    }\r\n\r\n    function approveLand(uint256 _id) public onlyAdmin {\r\n        require(!lands[_id].isApproved, \"Land already approved\");\r\n        lands[_id].isApproved = true;\r\n        emit LandApproved(_id);\r\n    }\r\n\r\n    function transferLand(uint256 _id, string memory _newOwner) \r\n        public payable paidFee(transferFee) \r\n    {\r\n        require(lands[_id].isApproved, \"Land is not approved\");\r\n        require(!lands[_id].isSold, \"Land already sold\");\r\n        pendingTransfers[_id] = TransferRequest(_id, _newOwner, false);\r\n    }\r\n\r\n    function approveTransfer(uint256 _id) public onlyAdmin {\r\n        require(!pendingTransfers[_id].isApproved, \"Transfer already approved\");\r\n        lands[_id].ownerName = pendingTransfers[_id].newOwner;\r\n        lands[_id].isSold = true;\r\n        pendingTransfers[_id].isApproved = true;\r\n        emit TransferApproved(_id);\r\n    }\r\n\r\n    function raiseDispute(uint256 _id, string memory _reason) public {\r\n        disputes[_id] = Dispute(_id, _reason, false);\r\n    }\r\n\r\n    function resolveDispute(uint256 _id) public onlyAdmin {\r\n        require(!disputes[_id].isResolved, \"Dispute already resolved\");\r\n        disputes[_id].isResolved = true;\r\n        emit DisputeResolved(_id);\r\n    }\r\n}\r\n",
  "sourcePath": "C:\\Users\\Dantez Mwaxh\\Documents\\Projects\\Landrecord\\contracts\\LandRecord.sol",
  "compiler": {
    "name": "solc",
    "version": "0.8.0+commit.c7dfd78e.Emscripten.clang"
  },
  "schemaVersion": "3.4.16",
  "updatedAt": "2025-03-22T12:57:46.324Z",
  "devdoc": {
    "kind": "dev",
    "methods": {},
    "version": 1
  },
  "userdoc": {
    "kind": "user",
    "methods": {},
    "version": 1
  }
}